:100000003DC0000057C0000055C0000053C00000B4
:1000100051C000004FC000004DC000004BC00000A8
:1000200049C0000047C0000045C0000043C00000B8
:1000300041C000003FC000003DC0000048C10000BA
:1000400039C0000037C0000035C0000033C00000D8
:1000500031C000002FC000002DC000002BC00000E8
:1000600029C0000027C0000025C0000023C00000F8
:1000700021C000001FC000001DC0000011241FBED1
:10008000CFEFCDBFDFE3DEBF809140008093400023
:10009000811105C098ED21E094BF209341008CBBF5
:1000A00028E3A0E0B8E301C01D92AA30B207E1F74F
:1000B0003FD1FBC1A5CF9FB7F89488E08093840A15
:1000C00080918E0A81FFFCCF80918D0AE091A20A77
:1000D000F091A30A20910038309101384091023804
:1000E000509103389FBF80FF07C0E730F10520F42F
:1000F0002F5F3F4F4F4F5F4FAEEFB1E0BDD16E0F5F
:100100007F1F811D911D660F771F881F991F0895FE
:10011000CF92DF92EF92FF92CF93DF93CCDFEB0190
:1001200082E3C82ED12CE12CF12CC5DF6C1B7D0B9A
:10013000683E7340A0F0C114D104E104F10439F425
:10014000DF91CF91FF90EF90DF90CF90089581E005
:10015000C81AD108E108F108C851DC4FE6CFC11434
:10016000D104E104F10409F7EBCFCF93DF93282FFB
:1001700030E0E901CC51DB4788818F3F09F43FC073
:10018000A9014E525B47DA01EC91B0E2EB9FF0011E
:100190001124FC5F611136C0868390818923A1F40C
:1001A000C90180549B47DC019C913097A1F19830A4
:1001B00090F57096E90FF11D9FB7F8948081611159
:1001C0002DC0877F80839FBF22553B47F9019081D7
:1001D0009923A9F08881903441F1903819F1903138
:1001E00071F4DA019C919130D9F4853010F0880FC8
:1001F00082959091010A809589238093010ADF916D
:10020000CF910895643029F49481878364816823B1
:10021000C4CF8583C2CFF0E0E0E0CECF8860D2CFFC
:10022000880FE7CF1092A006EACF20E4823009F4CD
:1002300020E89091920A922311F36FB7F89490916D
:10024000800A9E7F9093800A4091920A30E0209528
:10025000309550E02423352398ED94BF2093920AE3
:1002600090918E0A90FFFCCF9091800A91609093BC
:10027000800A813039F4809150048F778093500444
:100280006FBFBDCF809151048F7780935104F8CF19
:1002900090E0FC01EC51FB4720812F3FA9F0FC01CD
:1002A000EE52FB47E08130E2E39FF0011124FC5F56
:1002B000662359F0218380549B47DC018C91E80F21
:1002C000F11D8089877F808B08952283F4CF8F93DF
:1002D00081E080938D0A8FB78F93EF93FF93E0E0D7
:1002E000F8E39F9368948FEF0FC0E8948481958121
:1002F0008C5E9F4F84839583885E934010F08FEFD0
:1003000003C0848395838EEF9081981B9193908195
:100310009F4F919390819F4F919390819F4F919385
:1003200026F39F91FF91EF918F918FBF8F91189539
:1003300088ED90E084BF90936100E0E0F6E083E513
:1003400082838AE0858380E2838381E080831092C8
:1003500002028093030A9EEF9093260A9093270A45
:100360009BE09093000AE0E8FAE02DEF31E026A749
:1003700037A7118290E89283848781E18083789403
:1003800060E08FE085DF60E080E082DF61E081E0B7
:100390007FDF61E082E07CDF61E083E079DF61E0C4
:1003A00089E076DF61E088E073DF61E087E070DF9D
:1003B00061E086E06DDF61E085E06ADF61E085E0B5
:1003C000D4DEC3E0D0E061E081E0CFDEA1DE60E01A
:1003D00081E0CBDE61E082E0C8DE9ADE60E082E0B0
:1003E000C4DE61E083E0C1DE93DE60E083E0BDDE79
:1003F00061E085E0BADE8CDE60E085E0B6DE61E0DB
:1004000087E0B3DE85DE60E087E0AFDE61E086E0B6
:10041000ACDE7EDE60E086E0A8DE60E085E0A5DEA2
:1004200077DE61E085E0A1DE219709F0CCCF8091F5
:100430000804C0910804C07161E0D82FD47082FF15
:1004400060E081E092DE61E0C11101C060E083E024
:100450008CDE11E0D11110E0612F89E086DED1E061
:10046000C111D0E06D2F88E080DE612F87E07DDE56
:100470006D2F86E07ADEDBCF09D0A59F900DB49F6B
:10048000900DA49F800D911D11240895A29FB0018D
:10049000B39FC001A39F700D811D1124911DB29FB8
:0E04A000700D811D1124911D0895F894FFCF59
:1004AE0010108000000000101010404000000000EE
:1004BE0010000405060705040302010000010203F3
:1004CE00010203000000000001010101010102020E
:1004DE0002020000000010204080201008040201DB
:0804EE000102040802040801E8
:00000001FF
