:100000003FC000006EC000006CC000006AC000006D
:1000100068C0000066C0000064C0000062C000004C
:1000200060C000005EC000005CC000005AC000005C
:1000300058C0000056C0000054C0000055C2000067
:1000400050C000004EC000004CC000004AC000007C
:1000500048C0000046C0000044C0000042C000008C
:1000600040C000003EC000003CC000003AC000009C
:1000700038C0000036C0000034C000009C03EF030D
:1000800011241FBECFEFCDBFDFE3DEBF8091400064
:1000900080934000811105C098ED21E094BF20932A
:1000A00041008CBB28E3A6E0B8E301C01D92AC324E
:1000B000B207E1F718E3A0E0B8E3EAEEFAE002C025
:1000C00005900D92A630B107D9F710E0CFE3D0E04C
:1000D00003C02197FE0198D3CE33D107D1F733D295
:1000E000D4C48ECF4F925F926F927F928F929F92E5
:1000F000AF92BF92FF92209113383091143882173B
:10010000930708F043C02B0166247724852E962E92
:10011000A72EBB24B82DA42F20911A38F42C22230B
:1001200091F0E22FF0E0E49DD001E59DB00DF49D4B
:10013000B00D1124FB2E289D40011124B92D249FC0
:1001400090011124A32FE091203820911B38309189
:100150001C3850911D38E51323C0FC01EE0FFF1F22
:100160008E0F9F1F820F931FE0911D38E80FF92F0C
:10017000F11DF082E0911E38E80FF92FF11DB083D8
:1001800020911F38820F911DFC01A083FF90BF902A
:10019000AF909F908F907F906F905F904F90089559
:1001A000880F991F880F991F820F931FE80FF92F4F
:1001B000F11D1082D9CF9FB7F89488E08093840A0C
:1001C00080918E0A81FFFCCF80918D0AE091A20A76
:1001D000F091A30A209108383091093840910A38EB
:1001E00050910B389FBF80FF07C0E730F10520F426
:1001F0002F5F3F4F4F4F5F4FBF0176956795CF0100
:10020000860F911DE62FE695E695762F72957F7005
:10021000E71BFF0B67FD3196E80FF91FA0E3B3E082
:10022000E9D26E0F7F1F811D911D08950F931F93BB
:10023000CF93DF93CDB7DEB72797CDBFDEBF8091D9
:1002400015389091163889839A8380911B38909144
:100250001C38892B09F469C080911938823108F063
:1002600064C0A9DF009121381091223820912338F1
:1002700030912438AB01BC01401B510B620B730B56
:100280008091173890911838B0E0A0E048175907CE
:100290006A077B0730F3F894A0911B38B0911C38A3
:1002A000FD0131968C918F83A0912538B09126382D
:1002B0009C9180912738982B9E839C9180958923CF
:1002C0008D838D818C8388E08B835E816D814F81EE
:1002D0003B812C8189819A815C9347FD252F3A953A
:1002E000000000C02C93262F41F0441F00C00000E6
:1002F0006C9301D0F1CF00C0089538E04191000027
:100300006C93000000C000C0019731F74F833B831E
:100310002C8389839A8378944EDF6093213870937D
:10032000223880932338909324382796CDBFDEBFA0
:10033000DF91CF911F910F91089540E0611140E34B
:1003400050E070E060E0762F652F542F442790E056
:10035000C9CECF93DF93823108F047C090E0EC0123
:10036000C852D54728812F3F09F43FC0AC014A53FA
:100370005547DA01EC91B0E2EB9FF0011124FC5FEC
:10038000611136C0268330812323A1F49C012C54B3
:100390003547D9012C91309769F1283058F570967E
:1003A000E20FF11D3FB7F8942081611126C0277F2D
:1003B00020833FBF8E559547FC0190819923A9F07A
:1003C0008881903409F19038E1F0903171F4DA01CC
:1003D0009C919130A1F4853010F0880F8295909116
:1003E000010A809589238093010ADF91CF910895B6
:1003F0002583C9CFF0E0E0E0D5CF2860D9CF880FC2
:10040000EECF1092A006F1CF20E4823009F420E86C
:100410009091920A922349F36FB7F8949091800AD1
:100420009E7F9093800A4091920A30E0209530950B
:1004300050E02423352398ED94BF2093920A9091A5
:100440008E0A90FFFCCF9091800A91609093800A71
:10045000813039F4809150048F77809350046FBFBE
:10046000C4CF809151048F7780935104F8CF8231AB
:10047000E0F490E0FC01E852F54720812F3FA9F01D
:10048000FC01EA53F547E08130E2E39FF0011124DB
:10049000FC5F662359F021838C549547DC018C91D5
:1004A000E80FF11D8089877F808B08952283F4CF28
:1004B00090E0FC01E852F54720812F3F99F08A53E4
:1004C0009547DC01EC91B0E2EB9FF0011124FC5F59
:1004D0008085282391E009F490E081E0911101C02A
:1004E00080E008959FEFF9CF8F9381E080938D0A8C
:1004F0008FB78F93EF93FF93E8E0F8E39F936894AF
:100500008FEF0DC0E89484819581805D9C4F84833A
:100510009583885E934080F0848395838FEF9081EC
:10052000981B919390819F4F919390819F4F9193AE
:1005300090819F4F919336F39F91FF91EF918F910F
:100540008FBF8F91189588ED90E084BF90936100E4
:10055000E0E0F6E083E582838DE0858380E28383BB
:10056000C1E0C08310920202C093030A8EEF809311
:10057000260A8093270A8BE08093000AE0E8FAE0DD
:100580008DEF91E086A797A7118280E88283C487C8
:1005900081E18083789460E08EE069DF60E08FE045
:1005A00066DF60E080E163DF60E081E060DF60E003
:1005B00082E05DDF60E083E05ADF60E084E057DFE7
:1005C00060E085E054DF60E088E051DF60E089E0D2
:1005D0004EDF61E087E04BDF61E08CE048DF61E007
:1005E0008DE045DF61E086E042DF61E08AE03FDFE9
:1005F00061E08BE03CDF61E08091193838DF60E03A
:1006000080911938A6DEC093123840911538509168
:10061000163870E060E080911B3890911C382ED223
:1006200005DEFF24F3948EE043DF882309F474C0D1
:10063000DD24D39481E03CDF082F811103C082E0E8
:1006400037DF082F83E034DF182F811103C084E0E7
:100650002FDF182F85E02CDF882309F465C0EE24F6
:10066000E394DD2029F0002319F0CE2D111101C0F3
:10067000C0E0DC2FDF256C2F87E06BDE6C2F8CE079
:1006800068DE6C2F8DE065DE6D2F86E062DE6D2FFB
:100690008AE05FDE6D2F8BE05CDE6D2D80E04DDE4D
:1006A000602F81E04ADE612F82E047DE6E2D83E01D
:1006B00044DE40E050E0BA01CC2321F040E050E4B9
:1006C00060E070E085E090E00DDD40E050E0BA01D0
:1006D000DD2321F040E050E060E470E086E090E04F
:1006E00001DD40910638509107384F5F5F4F4093CE
:1006F0000638509307384F7350E070E060E0B62F33
:10070000A52F942F8827482B592B6A2B7B2B84E00D
:1007100090E0E8DC8BDD87CF8FE0CADE811188CFE7
:1007200080E1C6DED82E86CF88E0C2DE811197CF69
:1007300089E0BEDEE82E95CF1092123882E390E079
:10074000809317389093183810921A3810922138E5
:1007500010922238109223381092243881E080932E
:10076000203880931D3810921E3882E080931F3805
:1007700085E190E080931538909316385AD0809395
:100780001B3890931C38009709F125E1FC01119268
:100790002A95E9F787E090E0809313389093143816
:1007A0001092193880911238882331F061E080E08E
:1007B0005EDE60E080E0CDDD84E094E0809325386B
:1007C0009093263880E18093273808951092153849
:1007D000109216381092133810921438E1CF80918D
:1007E0001B3890911C38009709F0BFD060E08091D1
:1007F00019383DCE0FD0A59F900DB49F900DA49FAA
:10080000800D911D11240895EE0FFF1F0590F491A6
:10081000E02D0994A29FB001B39FC001A39F700D6A
:10082000811D1124911DB29F700D811D1124911DF8
:1008300008950F931F93CF93DF938230910510F4A7
:1008400082E090E0E0912A38F0912B3830E020E00F
:10085000B0E0A0E0309799F42115310509F44AC0C1
:10086000281B390B24303105D8F58A819B8161150D
:10087000710589F1FB0182839383FE0111C04081E0
:1008800051810281138148175907E0F04817590731
:1008900099F4109761F012960C93129713961C938B
:1008A0003296CF01DF91CF911F910F910895009360
:1008B0002A3810932B38F4CF2115310551F0421707
:1008C000530738F0A901DB019A01BD01DF01F801EE
:1008D000C1CFEF01F9CF80932A3890932B38CDCF39
:1008E000FE01E20FF31F8193919322503109288377
:1008F0003983D7CF2091283830912938232B41F4E0
:1009000020910238309103382093283830932938C9
:1009100020910038309101382115310541F42DB76F
:100920003EB74091043850910538241B350BE091B7
:100930002838F0912938E217F307A0F42E1B3F0B5B
:100940002817390778F0AC014E5F5F4F2417350741
:1009500048F04E0F5F1F40932838509329388193F9
:1009600091939FCFF0E0E0E09CCFCF93DF9300978F
:10097000E9F0FC01329712821382A0912A38B091DB
:100980002B38ED0130E020E01097A1F42081318177
:10099000820F931F20912838309129382817390762
:1009A00009F061C0E0932838F0932938DF91CF91A6
:1009B0000895EA01CE17DF07E8F54A815B819E01C1
:1009C00041155105B1F7E901EA83FB83499159913A
:1009D000C40FD51FEC17FD0761F480819181029649
:1009E000840F951FE90188839983828193818A838B
:1009F0009B83F0E0E0E012968D919C911397009715
:100A0000B9F52D913C911197CD010296820F931F5C
:100A100020912838309129382817390739F630972E
:100A200051F510922A3810922B38A0932838B093A1
:100A30002938BCCFC283D38340815181840F951F55
:100A4000C817D90761F44E5F5F4F88819981480FBD
:100A5000591F408351838A819B818283938321150F
:100A6000310509F0B0CFE0932A38F0932B389ECFB0
:100A7000FD01DC01C0CF12821382D7CFDC0101C09F
:100A80006D9341505040E0F7089510E0CFE3D0E07F
:100A900003C0FE01B9DE2196C034D107D1F7F89426
:020AA000FFCF86
:100AA20010108000000000101010404000000000F4
:100AB20010000405060705040302010000010203F9
:100AC2000102030000000000010101010101020214
:100AD20002020000000010204080201008040201E1
:080AE2000102040802040801EE
:060AEA0000002C38800022
:00000001FF
