:1000000050C0000068C0000066C0000064C000006E
:1000100062C0000060C000005EC000005CC0000064
:100020005AC0000058C0000056C0000054C0000074
:1000300052C0000050C000004EC000004CC0000084
:100040004AC00000B9C3000092C3000044C00000D1
:1000500042C0000040C000003EC000003CC00000A4
:100060003AC000005CC3000036C0000034C000008D
:1000700032C0000030C000002EC000002CC00000C4
:100080002AC0000028C0000026C0000024C00000D4
:1000900022C0000020C000001EC000001CC00000E4
:1000A000280711241FBECFEFCDBFDFE3DEBF28E25C
:1000B000A0E0B8E201C01D92A43AB207E1F710E057
:1000C000C1E5D0E003C02197FE015FD7C035D1075D
:1000D000D1F7A0D36FC794CFAF92BF92CF92DF92E8
:1000E000EF92FF920F931F93CF93DF936C017B01ED
:1000F0008B01040F151FEB015E01AE18BF08C0177E
:10010000D10759F06991D601ED91FC910190F081F0
:10011000E02DC6010995892B79F7C501DF91CF91B3
:100120001F910F91FF90EF90DF90CF90BF90AF9015
:100130000895FC01508D418D252F30E0842F90E0F3
:10014000821B930B541710F0CF96089501970895D2
:10015000FC0196898789981761F0A789AE0FBF2F98
:10016000B11D5D968C9197899F5F9F73978B90E0EF
:1001700008958FEF9FEF0895FC019689878998175E
:1001800031F08789E80FF11D858D90E008958FEF9C
:100190009FEF0895FC0196892789892F90E0805C64
:1001A0009F4F821B91098F7399270895CF93DF93F7
:1001B000EC01E881F9810680F781E02D0995EC8555
:1001C000FD8586818F738683EC85FD8585818F759E
:1001D00085838F898E8B1D8ADF91CF910895FC01D5
:1001E000613019F4648B81E00895148A6623D9F391
:1001F00080E00895DC0154961C92549754968C919B
:1002000054978230A0F4282F30E0F901EE0FFF1F41
:10021000E20FF31FEA0FFB1F9785961303C0968525
:10022000941749F08F5F54968C935497E7CF549668
:100230001C9280E0089581E00895CF93DF93FC0144
:10024000908D818DC485D585981306C08D818F7D55
:100250008D83DF91CF910895A18DAE0FBF2FB11D7A
:10026000A35ABF4F2C91818D90E001968F739927EF
:10027000818F80E48C83A485B58512962C93908D14
:10028000818D9813E6CFA485B58515968C91159729
:100290008F7D15968C93838D8823D9F2848D8093DE
:1002A0001301138ED6CFDC011C96ED91FC910FB695
:1002B00007FE03C0258125FD03C0248125FDBDCF98
:1002C0000895EF92FF920F931F93CF93DF93EC016A
:1002D00081E08D8B988D898D98131CC0AC85BD8570
:1002E00014968C91149785FF15C012966C93AC856B
:1002F000BD8580E414968C93EC85FD8585818F7D8A
:10030000858381E090E0DF91CF911F910F91FF9065
:10031000EF9008958091110180FF08C08091130132
:100320008C8F8A8D8093130181E08B8FF62E088D40
:1003300010E00F5F1F4F0F731127E02E898D8E1174
:1003400003C0CE01B0DFFACFE88DEC0FFD2FF11D19
:10035000E35AFF4FF082088FEC85FD85858180622E
:10036000CFCFCF93DF93FC0125892223C1F0EC018D
:100370008091110180FF08C080911301848F828DCC
:100380008093130181E0838FEC85FD85858185FD58
:1003900003C0848186FD03C0CE0185DFF5CFDF91E8
:1003A000CF91089580E098E2F5DE21E0892B09F4F1
:1003B00020E0822F089580E090E0892B21F0F2DF89
:1003C00081110E94000080E090E0892B49F080E0DC
:1003D00090E0892B29F00E94000081110E9400000A
:1003E00080E090E0892B49F080E090E0892B29F0B3
:1003F0000E94000081110E94000080E090E0892BA3
:1004000049F080E090E0892B29F00E9400008111E2
:100410000C9400000895CF93DF9390E0FC01EB581B
:10042000FD4A20812F3F69F0FC01E45BFD4AA08179
:1004300030E2A39FD0011124BC5F613029F41196F2
:100440002C93DF91CF9108958D5D9D4AEC01E88159
:10045000EF3F81F0CD014096E80FF92FF11D9FB7D6
:10046000F89412962C938081623039F488608083EE
:100470009FBFE7CFF0E0E0E0F2CF877FF8CF90E0DA
:10048000FC01E650FE4AE081EE2319F1E13021F053
:1004900000F1E630A8F008958D5D9D4AFC012081B1
:1004A000233008F02F5F3091010A81E090E001C015
:1004B000880F2A95EAF7809583238093010A08958F
:1004C00080E1E89FF0011124E05AF54F81818F7E91
:1004D000818308950F931F93CF93DF93082F10E02C
:1004E000F801EB58FD4AD081DF3F99F0C62F8932E1
:1004F00008F4C5DFF801E45BFD4AE08180E2E89F93
:10050000F0011124FC5F80818D2371F0C11106C0C0
:10051000D683DF91CF911F910F910895C43011F4CC
:10052000D783F7CFD583F5CFD801AD5DBD4A8C9188
:10053000309771F08F3F61F07096E80FF11D9FB713
:10054000F8948081C11107C0877F80839FBFE1CF6E
:10055000F0E0E0E0F4CF8860F8CFAF92BF92CF92A6
:10056000DF92EF92FF920F931F93CF93DF93EC01F3
:100570006A017B01A22E8D89882339F0E881F981F7
:100580000688F789E02DCE0109950C8910E0BFB6E9
:10059000F89460E070E281EA97E0A701960193D4B5
:1005A00069017A018FEFC81AD80AE80AF80AF694A6
:1005B000E794D794C794EC85FD8586818D7F8683EB
:1005C000EC85FD85868186831D8AA09123110A2EE4
:1005D000000CBB0BA7019601BED420E034E040E044
:1005E00050E093D4EC85FD85C20ED31EE41EF51EAB
:1005F000C086D186EC85FD85A782EC85FD85868148
:10060000806C8683EC85FD858581806885839091EB
:10061000E2058B89809589237801EE0CFF1CF70198
:10062000E00FF11FEC0FFD1F9089892B8093E205ED
:100630008685893210F462E0EEDEF701E00FF11FEB
:10064000EC0FFD1F8785893210F461E043DF0E0D4A
:100650001F1DC00FD11F8F85893210F461E0DBDED2
:10066000BFBEDF91CF911F910F91FF90EF90DF9070
:10067000CF90BF90AF9008950F931F93CF93082F03
:1006800010E0F801EB58FD4AC081CF3F81F089327C
:1006900008F4F5DEF801E45BFD4AE08180E2E89FC2
:1006A000F0011124FC5F8085C82381E009F480E01B
:1006B000CF911F910F9108958FB7F8942091A028A2
:1006C0003091A1284091A2285091A328E091AA0A34
:1006D000F091AB0A9091A60A90FF08C02F5F3F4FA0
:1006E0004F4F5F4FE091AA0AF091AB0A8FBFA8EE7F
:1006F000B3E027D424E0F695E7952A95E1F76E0F4D
:100700007F1F811D911D089581E00895DC01ED9109
:10071000FC910488F589E02D23E030E009941F92D4
:100720000F920FB60F9211248F939F93AF93BF93A5
:100730008091A0289091A128A091A228B091A328EF
:100740000196A11DB11D8093A0289093A128A0938C
:10075000A228B093A32881E08093A60ABF91AF910D
:100760009F918F910F900FBE0F901F9018951F9221
:100770000F920FB60F9211242F933F934F935F93D5
:100780006F937F938F939F93AF93BF93EF93FF9359
:1007900080E098E252DDFF91EF91BF91AF919F9180
:1007A0008F917F916F915F914F913F912F910F901A
:1007B0000FBE0F901F9018951F920F920FB60F92B9
:1007C00011242F938F939F93EF93FF93E0910C2825
:1007D000F0910D28818181FD1BC0908180911628A8
:1007E0008F5F8F7320911728821741F0E0911628B0
:1007F000F0E0E050F84D958F80931628FF91EF912F
:100800009F918F912F910F900FBE0F901F90189571
:100810008081F4CFCF93DF93CDB7DEB7E097CDBF24
:10082000DEBF88ED90E084BF909361008091020666
:1008300086608093020680910006816080930006A6
:10084000809102068F7C8065809302061092E205FB
:1008500082E08093E40581E08093030A8EEF809329
:10086000270A8093260A80E880932D0A80932B0A1A
:100870008093290A80932C0A80932A0A8093280A5D
:100880008BE08093000A87E08093E505E0E8FAE0DA
:1008900037E02EEF90E885E03183248795878083C9
:1008A0007096E03C4AE0F407B9F71092A10A8FE78E
:1008B0009EE38093AC0A9093AD0A8091A50A816073
:1008C0008093A50A1092A00A8091A00A816080936B
:1008D000A00A789440E855E260E070E080E098E299
:1008E00015DF60E088E297DD60E084E094DD60E0A1
:1008F00085E091DD60E086E08EDD60E08DE18BDDFE
:1009000060E083E188DD60E082E185DD60E080E039
:1009100082DD61E087E07FDD61E08EE17CDD61E02A
:100920008FE179DD61E080E276DD61E081E273DD17
:100930001AEFE12E11E5F12E06EEC02E01E5D02EC4
:10094000F6011081F2E0CF0ED11C193230F461E0D3
:10095000812F61DD60E0812FBDDDEC14FD0481F7A6
:1009600061E086E158DD61E087E155DD61E088E125
:1009700052DD61E089E14FDD61E08AE14CDD61E05B
:100980008BE149DD61E081E046DD61E088E043DD47
:1009900061E089E040DD61E085E13DDD61E086E127
:1009A00099DD61E087E196DD61E088E193DD61E05A
:1009B00089E190DD61E08AE18DDD61E08BE18ADD36
:1009C00060E081E087DD60E088E084DD60E089E070
:1009D00081DD60E085E17EDDBEE22B2EB0E53B2EC1
:1009E00084E04ADE982E85E047DEA82E86E044DECD
:1009F000B82E88E241DE882E8111B2C110929E2865
:100A000010929F2800919E2810919F28602F61705E
:100A10008EE160DDB8017595679561708FE15ADDF3
:100A2000B8017595679575956795617080E252DD9F
:100A3000B801A3E075956795AA95E1F7617081E229
:100A400049DDBB2031F0AA2021F061E00F30110513
:100A500009F060E087E03EDD56EEE52E51E5F52E2B
:100A6000F7018081F2E0EF0EF11C893210F460E0B2
:100A700031DDCE14DF04A1F7015011090A30110550
:100A800050F4000F111FF801EA51FE4A80818932AB
:100A900010F461E01FDD10E000E0882031F086ED09
:100AA0009FE489839A8301E010E0992079F0F801AE
:100AB000EE0FFF1F81E090E08C0F9D1FE80FF91FE4
:100AC0008CEE9FE4808391830F5F1F4FAA2079F003
:100AD000F801EE0FFF1F81E090E08C0F9D1FE80FE3
:100AE000F91F82E090E5808391830F5F1F4FBB2049
:100AF00079F0F801EE0FFF1F81E090E08C0F9D1F51
:100B0000E80FF91F88E190E5808391830F5F1F4F05
:100B100087E0B2DD813069F4F801EE0FFF1F81E05C
:100B200090E08C0F9D1FE80FF91F208231820F5F2C
:100B30001F4F8DE1A1DD813079F4F801EE0FFF1F29
:100B400081E090E08C0F9D1FE80FF91F82EB90E58C
:100B5000808391830F5F1F4F83E18EDD813079F4B5
:100B6000F801EE0FFF1F81E090E08C0F9D1FE80F52
:100B7000F91F88EC90E5808391830F5F1F4F82E11E
:100B80007BDD813079F4F801EE0FFF1F81E090E00A
:100B90008C0F9D1FE80FF91F8EED90E580839183E8
:100BA0000F5F1F4F80E068DD813079F4F801EE0FB0
:100BB000FF1F81E090E08C0F9D1FE80FF91F84EF6D
:100BC00090E5808391830F5F1F4F8EE155DD81306B
:100BD00079F4F801EE0FFF1F81E090E08C0F9D1F6C
:100BE000E80FF91F8AE590E5808391830F5F1F4F1F
:100BF0008FE142DD813079F4F801EE0FFF1F81E0D3
:100C000090E08C0F9D1FE80FF91F80E790E580832F
:100C100091830F5F1F4F80E22FDD813079F4F8015F
:100C2000EE0FFF1F81E090E08C0F9D1FE80FF91F72
:100C300086E890E5808391830F5F1F4F81E21CDD82
:100C4000813079F4F801EE0FFF1F81E090E08C0F06
:100C50009D1FE80FF91F8CE990E5808391830F5F5A
:100C60001F4F96EEA92E91E5B92EF12CE12CF5013E
:100C70008081F2E0AF0EB11C8932B0F4FDDC81302E
:100C800099F40831110584F4F801EE0FFF1F81E09B
:100C900090E08C0F9D1FE80FF91FC701865F9E4AE9
:100CA000808391830F5F1F4F96E1E90EF11CECEDFD
:100CB000EE16F104E1F6CE0101964C01B12CA12C07
:100CC000A016B10609F4A4C0F401E190F1904F011F
:100CD000F701628186E1FEDBF701648187E1FADBDF
:100CE000F701668188E1F6DBF701608589E1F2DBD7
:100CF000F70162858AE1EEDBF70164858BE1EADBCF
:100D0000F701668581E0E6DBF701608988E0E2DBD8
:100D1000F701628989E0DEDBF701648985E1DADBCE
:100D2000CBDC2B013C01F8EE4F0EF3E05F1E611CA3
:100D3000711C28EE421623E052066104710430F45F
:100D4000BBDC4616570668067906D0F3B5DC641599
:100D5000750586059705D0F34FEFA41AB40AB0CFF6
:100D6000B1103DC080919D28992099F181114ACE02
:100D700081E080939D288DE17FDC01E010E08130EF
:100D800011F010E000E083E177DC8130C9F482E00B
:100D900090E0082B192B82E16FDC8130A1F484E014
:100DA00090E0082B192B80E067DC813079F488E033
:100DB00090E0082B192B00939E2810939F2822CE99
:100DC00090E080E0E6CF90E080E0EBCF90E080E044
:100DD000F0CF882309F416CE10929D2813CEAA20B6
:100DE00009F410CE80919D28992099F381110ACEA3
:100DF00080919E2890919F2821E020939D28019624
:100E000060E170E04DD080939E2890939F28FACDAA
:100E100061E086E15FDB61E087E15CDB61E088E166
:100E200059DB61E089E156DB61E08AE153DB61E097
:100E30008BE150DB60E081E04DDB60E088E04ADB85
:100E400060E089E047DB60E085E144DBB4DAC8CDEF
:100E5000E0E0F8E21282138288EE93E0A0E0B0E0D6
:100E600084839583A683B7838CEB9FE480839183EF
:100E700080E098E08487958781E086871786108ACE
:100E800095E0918B94E0928B838B148A158A168A55
:100E9000178A108E118E82E1828F138E148E089520
:100EA00097FB072E16F4009406D077FD08D059D092
:100EB00007FC05D03EF4909581959F4F089570955D
:100EC00061957F4F0895A1E21A2EAA1BBB1BFD015D
:100ED0000DC0AA1FBB1FEE1FFF1FA217B307E40719
:100EE000F50720F0A21BB30BE40BF50B661F771F71
:100EF000881F991F1A9469F7609570958095909551
:100F00009B01AC01BD01CF010895052E97FB16F49E
:100F100000940FD057FD05D0D6DF07FC02D046F471
:100F200008C050954095309521953F4F4F4F5F4FEA
:100F3000089590958095709561957F4F8F4F9F4F45
:100F4000089529D0A59F900DB49F900DA49F800D6A
:100F5000911D11240895B7FFF4CFF3DF821B930B8B
:100F60000895AA1BBB1B51E107C0AA1FBB1FA617F0
:100F7000B70710F0A61BB70B881F991F5A95A9F742
:100F800080959095BC01CD010895EE0FFF1F05904F
:100F9000F491E02D0994A29FB001B39FC001A39FDB
:100FA000700D811D1124911DB29F700D811D1124A2
:080FB000911D0895F894FFCF94
:100FB8000000000061016C009900B101CA00A8009E
:100FC800BC00FA00EF008603AD02D60084039E52EF
:100FD8000000010001000100010001000100000003
:100FE80000000000A2520100000001000100010001
:100FF80001000100000000000000A65201000100ED
:1010080000000100010001000100000000000000D4
:10101800AA520100010001000000010001000100C6
:10102800000000000000AE520100010001000100B4
:10103800000001000100000000000000B2520100A1
:101048000100010001000100000001000000000093
:101058000000B7520000010001000100010001007A
:101068000000000001000000BB5201000000010068
:101078000100010001000000000001000000BF5253
:101088000100010000000100010001000000000053
:1010980001000000C352010001000100000001002E
:1010A80001000000000001000000C752000001001C
:1010B8000100010001000100000001000000000023
:1010C800CB520100000001000100010001000000F6
:1010D800010000000000CF520100010000000100E3
:1010E800010001000000010000000000D3520100CF
:1010F80001000100000001000100000001000000E3
:101108000000D752010001000100010000000100A9
:101118000000010000000000DA5201000100010097
:101128000100010000000000010000000000DD5285
:1011380001000100010001000000010000000000A2
:1011480001000000E052010001000100010001005F
:1011580000000000000001000000E3520000010050
:101168000100010001000100000000000000010072
:10117800E65201000000010001000100010000002A
:10118800000000000100E952010001000000010018
:10119800010001000000000000000100EC52010005
:1011A8000100010000000100010000000000000033
:1011B8000100EF52010001000100010000000100E0
:1011C8000000000000000100F252010001000100CF
:1011D80001000100000000000000000001002300E1
:1011E80022000200030024002500110010000F0057
:1011F8000E000000000000000000000000000005D4
:1012080001010101010100000000000000000000D0
:1012180000000000000000000203000001020304B7
:101228000506070001020304050001020304050680
:10123800070001020304050607000102030001027A
:101248000304050600000000000000000101010180
:101258000101020202020202020203030303030362
:101268000303040404040505050505050501020436
:101278000810204080010204081020010204081010
:101288002040800102040810204080010204080167
:10129800020408102040434C5200434C4B00454E7A
:1012A8005000454E540052434F00434153450042BD
:1012B8004F3100424F3200424F3300424F34004218
:1012C800493100424932004249330042493400441E
:1012D800310044320044330044340044350044367D
:0E12E8000044370044380044390044313000DF
:00000001FF
